{
  "_format": "hh-sol-artifact-1",
  "contractName": "ERC20Token",
  "sourceName": "contracts/ERC20Token.sol",
  "abi": [
    {
      "anonymous": false,
      "inputs": [
        {
          "indexed": true,
          "internalType": "address",
          "name": "owner",
          "type": "address"
        },
        {
          "indexed": true,
          "internalType": "address",
          "name": "spender",
          "type": "address"
        },
        {
          "indexed": false,
          "internalType": "uint256",
          "name": "value",
          "type": "uint256"
        }
      ],
      "name": "Approval",
      "type": "event"
    },
    {
      "anonymous": false,
      "inputs": [
        {
          "indexed": true,
          "internalType": "address",
          "name": "from",
          "type": "address"
        },
        {
          "indexed": true,
          "internalType": "address",
          "name": "to",
          "type": "address"
        },
        {
          "indexed": false,
          "internalType": "uint256",
          "name": "value",
          "type": "uint256"
        }
      ],
      "name": "Transfer",
      "type": "event"
    },
    {
      "inputs": [],
      "name": "IID_IERC165",
      "outputs": [
        {
          "internalType": "bytes4",
          "name": "",
          "type": "bytes4"
        }
      ],
      "stateMutability": "view",
      "type": "function"
    },
    {
      "inputs": [],
      "name": "IID_IERC20",
      "outputs": [
        {
          "internalType": "bytes4",
          "name": "",
          "type": "bytes4"
        }
      ],
      "stateMutability": "view",
      "type": "function"
    },
    {
      "inputs": [],
      "name": "IID_IERC20METADATA",
      "outputs": [
        {
          "internalType": "bytes4",
          "name": "",
          "type": "bytes4"
        }
      ],
      "stateMutability": "view",
      "type": "function"
    },
    {
      "inputs": [
        {
          "internalType": "address",
          "name": "owner",
          "type": "address"
        },
        {
          "internalType": "address",
          "name": "spender",
          "type": "address"
        }
      ],
      "name": "allowance",
      "outputs": [
        {
          "internalType": "uint256",
          "name": "",
          "type": "uint256"
        }
      ],
      "stateMutability": "view",
      "type": "function"
    },
    {
      "inputs": [
        {
          "internalType": "address",
          "name": "spender",
          "type": "address"
        },
        {
          "internalType": "uint256",
          "name": "amount",
          "type": "uint256"
        }
      ],
      "name": "approve",
      "outputs": [
        {
          "internalType": "bool",
          "name": "",
          "type": "bool"
        }
      ],
      "stateMutability": "nonpayable",
      "type": "function"
    },
    {
      "inputs": [
        {
          "internalType": "address",
          "name": "account",
          "type": "address"
        }
      ],
      "name": "balanceOf",
      "outputs": [
        {
          "internalType": "uint256",
          "name": "",
          "type": "uint256"
        }
      ],
      "stateMutability": "view",
      "type": "function"
    },
    {
      "inputs": [],
      "name": "decimals",
      "outputs": [
        {
          "internalType": "uint8",
          "name": "",
          "type": "uint8"
        }
      ],
      "stateMutability": "view",
      "type": "function"
    },
    {
      "inputs": [
        {
          "internalType": "address",
          "name": "spender",
          "type": "address"
        },
        {
          "internalType": "uint256",
          "name": "subtractedValue",
          "type": "uint256"
        }
      ],
      "name": "decreaseAllowance",
      "outputs": [
        {
          "internalType": "bool",
          "name": "",
          "type": "bool"
        }
      ],
      "stateMutability": "nonpayable",
      "type": "function"
    },
    {
      "inputs": [
        {
          "internalType": "address",
          "name": "spender",
          "type": "address"
        },
        {
          "internalType": "uint256",
          "name": "addedValue",
          "type": "uint256"
        }
      ],
      "name": "increaseAllowance",
      "outputs": [
        {
          "internalType": "bool",
          "name": "",
          "type": "bool"
        }
      ],
      "stateMutability": "nonpayable",
      "type": "function"
    },
    {
      "inputs": [
        {
          "internalType": "string",
          "name": "name_",
          "type": "string"
        },
        {
          "internalType": "string",
          "name": "symbol_",
          "type": "string"
        },
        {
          "internalType": "uint256",
          "name": "totalSupply_",
          "type": "uint256"
        }
      ],
      "name": "init",
      "outputs": [],
      "stateMutability": "nonpayable",
      "type": "function"
    },
    {
      "inputs": [],
      "name": "name",
      "outputs": [
        {
          "internalType": "string",
          "name": "",
          "type": "string"
        }
      ],
      "stateMutability": "view",
      "type": "function"
    },
    {
      "inputs": [
        {
          "internalType": "bytes4",
          "name": "interfaceId",
          "type": "bytes4"
        }
      ],
      "name": "supportsInterface",
      "outputs": [
        {
          "internalType": "bool",
          "name": "",
          "type": "bool"
        }
      ],
      "stateMutability": "view",
      "type": "function"
    },
    {
      "inputs": [],
      "name": "symbol",
      "outputs": [
        {
          "internalType": "string",
          "name": "",
          "type": "string"
        }
      ],
      "stateMutability": "view",
      "type": "function"
    },
    {
      "inputs": [],
      "name": "totalSupply",
      "outputs": [
        {
          "internalType": "uint256",
          "name": "",
          "type": "uint256"
        }
      ],
      "stateMutability": "view",
      "type": "function"
    },
    {
      "inputs": [
        {
          "internalType": "address",
          "name": "to",
          "type": "address"
        },
        {
          "internalType": "uint256",
          "name": "amount",
          "type": "uint256"
        }
      ],
      "name": "transfer",
      "outputs": [
        {
          "internalType": "bool",
          "name": "",
          "type": "bool"
        }
      ],
      "stateMutability": "nonpayable",
      "type": "function"
    },
    {
      "inputs": [
        {
          "internalType": "address",
          "name": "from",
          "type": "address"
        },
        {
          "internalType": "address",
          "name": "to",
          "type": "address"
        },
        {
          "internalType": "uint256",
          "name": "amount",
          "type": "uint256"
        }
      ],
      "name": "transferFrom",
      "outputs": [
        {
          "internalType": "bool",
          "name": "",
          "type": "bool"
        }
      ],
      "stateMutability": "nonpayable",
      "type": "function"
    }
  ],
  "bytecode": "0x608060405234801561001057600080fd5b50610c67806100206000396000f3fe608060405234801561001057600080fd5b50600436106101005760003560e01c806370a0823111610097578063a9059cbb11610066578063a9059cbb1461021c578063d2723b971461022f578063dd62ed3e1461023d578063ffe76a641461027657600080fd5b806370a08231146101b157806395d89b41146101da578063a4027838146101e2578063a457c2d71461020957600080fd5b806323b872dd116100d357806323b872dd146101675780632eabc9171461017a578063313ce5671461018f578063395093511461019e57600080fd5b806301ffc9a71461010557806306fdde031461012d578063095ea7b31461014257806318160ddd14610155575b600080fd5b610118610113366004610ad7565b610284565b60405190151581526020015b60405180910390f35b6101356102d6565b6040516101249190610b69565b610118610150366004610aae565b610368565b6002545b604051908152602001610124565b610118610175366004610a73565b610380565b61018d610188366004610aff565b6103a4565b005b60405160128152602001610124565b6101186101ac366004610aae565b6103db565b6101596101bf366004610a20565b6001600160a01b031660009081526020819052604090205490565b61013561041a565b6101f06301ffc9a760e01b81565b6040516001600160e01b03199091168152602001610124565b610118610217366004610aae565b610429565b61011861022a366004610aae565b6104b2565b6101f063a219a02560e01b81565b61015961024b366004610a41565b6001600160a01b03918216600090815260016020908152604080832093909416825291909152205490565b6101f06336372b0760e01b81565b60006001600160e01b031982166336372b0760e01b14806102b557506001600160e01b031982166301ffc9a760e01b145b806102d057506001600160e01b0319821663a219a02560e01b145b92915050565b6060600380546102e590610be0565b80601f016020809104026020016040519081016040528092919081815260200182805461031190610be0565b801561035e5780601f106103335761010080835404028352916020019161035e565b820191906000526020600020905b81548152906001019060200180831161034157829003601f168201915b5050505050905090565b6000336103768185856104c0565b5060019392505050565b60003361038e8582856105cd565b61039985858561065f565b506001949350505050565b82516103b79060039060208601906108e4565b5081516103cb9060049060208501906108e4565b506103d63382610805565b505050565b3360008181526001602090815260408083206001600160a01b03871684529091528120549091906103769082908690610415908790610bbc565b6104c0565b6060600480546102e590610be0565b3360008181526001602090815260408083206001600160a01b0387168452909152812054909190838110156104a55760405162461bcd60e51b815260206004820152601e60248201527f44656372656173656420616c6c6f77616e63652062656c6f77207a65726f000060448201526064015b60405180910390fd5b61039982868684036104c0565b60003361037681858561065f565b6001600160a01b0383166105165760405162461bcd60e51b815260206004820152601d60248201527f417070726f76652066726f6d20746865207a65726f2061646472657373000000604482015260640161049c565b6001600160a01b03821661056c5760405162461bcd60e51b815260206004820152601b60248201527f417070726f766520746f20746865207a65726f20616464726573730000000000604482015260640161049c565b6001600160a01b0383811660008181526001602090815260408083209487168084529482529182902085905590518481527f8c5be1e5ebec7d5bd14f71427d1e84f3dd0314c0f7b2291e5b200ac8c7c3b925910160405180910390a3505050565b6001600160a01b038381166000908152600160209081526040808320938616835292905220546000198114610659578181101561064c5760405162461bcd60e51b815260206004820152601d60248201527f45524332303a20696e73756666696369656e7420616c6c6f77616e6365000000604482015260640161049c565b61065984848484036104c0565b50505050565b6001600160a01b0383166106b55760405162461bcd60e51b815260206004820152601e60248201527f5472616e736665722066726f6d20746865207a65726f20616464726573730000604482015260640161049c565b6001600160a01b03821661070b5760405162461bcd60e51b815260206004820152601c60248201527f5472616e7366657220746f20746865207a65726f206164647265737300000000604482015260640161049c565b6001600160a01b038316600090815260208190526040902054818110156107745760405162461bcd60e51b815260206004820152601f60248201527f5472616e7366657220616d6f756e7420657863656564732062616c616e636500604482015260640161049c565b6001600160a01b038085166000908152602081905260408082208585039055918516815290812080548492906107ab908490610bbc565b92505081905550826001600160a01b0316846001600160a01b03167fddf252ad1be2c89b69c2b068fc378daa952ba7f163c4a11628f55a4df523b3ef846040516107f791815260200190565b60405180910390a350505050565b6001600160a01b03821661085b5760405162461bcd60e51b815260206004820152601860248201527f4d696e7420746f20746865207a65726f20616464726573730000000000000000604482015260640161049c565b806002600082825461086d9190610bbc565b90915550506001600160a01b0382166000908152602081905260408120805483929061089a908490610bbc565b90915550506040518181526001600160a01b038316906000907fddf252ad1be2c89b69c2b068fc378daa952ba7f163c4a11628f55a4df523b3ef9060200160405180910390a35050565b8280546108f090610be0565b90600052602060002090601f0160209004810192826109125760008555610958565b82601f1061092b57805160ff1916838001178555610958565b82800160010185558215610958579182015b8281111561095857825182559160200191906001019061093d565b50610964929150610968565b5090565b5b808211156109645760008155600101610969565b80356001600160a01b038116811461099457600080fd5b919050565b600082601f8301126109a9578081fd5b813567ffffffffffffffff808211156109c4576109c4610c1b565b604051601f8301601f19908116603f011681019082821181831017156109ec576109ec610c1b565b81604052838152866020858801011115610a04578485fd5b8360208701602083013792830160200193909352509392505050565b600060208284031215610a31578081fd5b610a3a8261097d565b9392505050565b60008060408385031215610a53578081fd5b610a5c8361097d565b9150610a6a6020840161097d565b90509250929050565b600080600060608486031215610a87578081fd5b610a908461097d565b9250610a9e6020850161097d565b9150604084013590509250925092565b60008060408385031215610ac0578182fd5b610ac98361097d565b946020939093013593505050565b600060208284031215610ae8578081fd5b81356001600160e01b031981168114610a3a578182fd5b600080600060608486031215610b13578283fd5b833567ffffffffffffffff80821115610b2a578485fd5b610b3687838801610999565b94506020860135915080821115610b4b578384fd5b50610b5886828701610999565b925050604084013590509250925092565b6000602080835283518082850152825b81811015610b9557858101830151858201604001528201610b79565b81811115610ba65783604083870101525b50601f01601f1916929092016040019392505050565b60008219821115610bdb57634e487b7160e01b81526011600452602481fd5b500190565b600181811c90821680610bf457607f821691505b60208210811415610c1557634e487b7160e01b600052602260045260246000fd5b50919050565b634e487b7160e01b600052604160045260246000fdfea2646970667358221220c6881310ec348c7cbfdb94a550cd2a8052fa13e3cef2eccfb4a74461161fe67c64736f6c63430008040033",
  "linkReferences": {},
  "deployedLinkReferences": {}
}