{
  "_format": "hh-sol-artifact-1",
  "contractName": "ERC20ContractFactory",
  "sourceName": "contracts/ERC20ContractFactory.sol",
  "abi": [
    {
      "anonymous": false,
      "inputs": [
        {
          "indexed": false,
          "internalType": "address",
          "name": "newERC20Address",
          "type": "address"
        }
      ],
      "name": "CloneERC20Created",
      "type": "event"
    },
    {
      "anonymous": false,
      "inputs": [
        {
          "indexed": true,
          "internalType": "address",
          "name": "previousOwner",
          "type": "address"
        },
        {
          "indexed": true,
          "internalType": "address",
          "name": "newOwner",
          "type": "address"
        }
      ],
      "name": "OwnershipTransferred",
      "type": "event"
    },
    {
      "inputs": [],
      "name": "_proxyAddress",
      "outputs": [
        {
          "internalType": "address",
          "name": "",
          "type": "address"
        }
      ],
      "stateMutability": "view",
      "type": "function"
    },
    {
      "inputs": [
        {
          "internalType": "string",
          "name": "name_",
          "type": "string"
        },
        {
          "internalType": "string",
          "name": "symbol_",
          "type": "string"
        },
        {
          "internalType": "uint256",
          "name": "totalSupply_",
          "type": "uint256"
        }
      ],
      "name": "createERC20Token",
      "outputs": [],
      "stateMutability": "nonpayable",
      "type": "function"
    },
    {
      "inputs": [],
      "name": "getCreatedCloneAddresses",
      "outputs": [
        {
          "internalType": "address[]",
          "name": "",
          "type": "address[]"
        }
      ],
      "stateMutability": "view",
      "type": "function"
    },
    {
      "inputs": [],
      "name": "owner",
      "outputs": [
        {
          "internalType": "address",
          "name": "",
          "type": "address"
        }
      ],
      "stateMutability": "view",
      "type": "function"
    },
    {
      "inputs": [],
      "name": "renounceOwnership",
      "outputs": [],
      "stateMutability": "nonpayable",
      "type": "function"
    },
    {
      "inputs": [
        {
          "internalType": "address",
          "name": "proxyAddress_",
          "type": "address"
        }
      ],
      "name": "setERC20ProxyAddress",
      "outputs": [],
      "stateMutability": "nonpayable",
      "type": "function"
    },
    {
      "inputs": [
        {
          "internalType": "address",
          "name": "newOwner",
          "type": "address"
        }
      ],
      "name": "transferOwnership",
      "outputs": [],
      "stateMutability": "nonpayable",
      "type": "function"
    }
  ],
  "bytecode": "0x608060405234801561001057600080fd5b5061001a3361001f565b61006f565b600080546001600160a01b038381166001600160a01b0319831681178455604051919092169283917f8be0079c531659141344cd1fd0a4f28419497f9722a3daafe3b4186f6b6457e09190a35050565b61077c8061007e6000396000f3fe608060405234801561001057600080fd5b506004361061007d5760003560e01c80638da5cb5b1161005b5780638da5cb5b146100d1578063933edf68146100e2578063e3e2f0f0146100f5578063f2fde38b1461010857600080fd5b8063394db6dd146100825780634e8dd18e146100b2578063715018a6146100c7575b600080fd5b600154610095906001600160a01b031681565b6040516001600160a01b0390911681526020015b60405180910390f35b6100ba61011b565b6040516100a99190610663565b6100cf61017d565b005b6000546001600160a01b0316610095565b6100cf6100f03660046105ae565b6101bc565b6100cf61010336600461056f565b61035f565b6100cf61011636600461056f565b6103ab565b6060600280548060200260200160405190810160405280929190818152602001828054801561017357602002820191906000526020600020905b81546001600160a01b03168152600190910190602001808311610155575b5050505050905090565b6000546001600160a01b031633146101b05760405162461bcd60e51b81526004016101a7906106e6565b60405180910390fd5b6101ba6000610446565b565b6000546001600160a01b031633146101e65760405162461bcd60e51b81526004016101a7906106e6565b6001546040805163d7dfa0dd60e01b815290516000926001600160a01b03169163d7dfa0dd91600480830192602092919082900301818787803b15801561022c57600080fd5b505af1158015610240573d6000803e3d6000fd5b505050506040513d601f19601f820116820180604052508101906102649190610592565b9050600061027182610496565b604051632eabc91760e01b81529091506001600160a01b03821690632eabc917906102a4908890889088906004016106b0565b600060405180830381600087803b1580156102be57600080fd5b505af11580156102d2573d6000803e3d6000fd5b5050600280546001810182556000919091527f405787fa12a823e0f2b7631cc41b3ba8828b3321ca811111fa75cd3aa3bb5ace0180546001600160a01b0319166001600160a01b0385169081179091556040519081527fa057c1cc348daeed3dce7c66fe0be5cc10a8acc2a04f15384db51b5b738167689250602001905060405180910390a15050505050565b6000546001600160a01b031633146103895760405162461bcd60e51b81526004016101a7906106e6565b600180546001600160a01b0319166001600160a01b0392909216919091179055565b6000546001600160a01b031633146103d55760405162461bcd60e51b81526004016101a7906106e6565b6001600160a01b03811661043a5760405162461bcd60e51b815260206004820152602660248201527f4f776e61626c653a206e6577206f776e657220697320746865207a65726f206160448201526564647265737360d01b60648201526084016101a7565b61044381610446565b50565b600080546001600160a01b038381166001600160a01b0319831681178455604051919092169283917f8be0079c531659141344cd1fd0a4f28419497f9722a3daafe3b4186f6b6457e09190a35050565b6000808260601b9050604051733d602d80600a3d3981f3363d3d373d3d3d363d7360601b81528160148201526e5af43d82803e903d91602b57fd5bf360881b60288201526037816000f0949350505050565b600082601f8301126104f8578081fd5b813567ffffffffffffffff808211156105135761051361071b565b604051601f8301601f19908116603f0116810190828211818310171561053b5761053b61071b565b81604052838152866020858801011115610553578485fd5b8360208701602083013792830160200193909352509392505050565b600060208284031215610580578081fd5b813561058b81610731565b9392505050565b6000602082840312156105a3578081fd5b815161058b81610731565b6000806000606084860312156105c2578182fd5b833567ffffffffffffffff808211156105d9578384fd5b6105e5878388016104e8565b945060208601359150808211156105fa578384fd5b50610607868287016104e8565b925050604084013590509250925092565b60008151808452815b8181101561063d57602081850181015186830182015201610621565b8181111561064e5782602083870101525b50601f01601f19169290920160200192915050565b6020808252825182820181905260009190848201906040850190845b818110156106a45783516001600160a01b03168352928401929184019160010161067f565b50909695505050505050565b6060815260006106c36060830186610618565b82810360208401526106d58186610618565b915050826040830152949350505050565b6020808252818101527f4f776e61626c653a2063616c6c6572206973206e6f7420746865206f776e6572604082015260600190565b634e487b7160e01b600052604160045260246000fd5b6001600160a01b038116811461044357600080fdfea2646970667358221220c4628adde0bc7e8f2bc037bd97cf57035daabb4d0ceb5712eb2f994a1b947c9d64736f6c63430008040033",
  "linkReferences": {},
  "deployedLinkReferences": {}
}