{
  "_format": "hh-sol-artifact-1",
  "contractName": "TransparentProxy",
  "sourceName": "contracts/TransparentProxy.sol",
  "abi": [
    {
      "inputs": [
        {
          "internalType": "address",
          "name": "logic_",
          "type": "address"
        },
        {
          "internalType": "address",
          "name": "admin_",
          "type": "address"
        },
        {
          "internalType": "bytes",
          "name": "data_",
          "type": "bytes"
        }
      ],
      "stateMutability": "nonpayable",
      "type": "constructor"
    },
    {
      "anonymous": false,
      "inputs": [
        {
          "indexed": false,
          "internalType": "address",
          "name": "previousAdmin",
          "type": "address"
        },
        {
          "indexed": false,
          "internalType": "address",
          "name": "newAdmin",
          "type": "address"
        }
      ],
      "name": "AdminChanged",
      "type": "event"
    },
    {
      "anonymous": false,
      "inputs": [
        {
          "indexed": true,
          "internalType": "address",
          "name": "beacon",
          "type": "address"
        }
      ],
      "name": "BeaconUpgraded",
      "type": "event"
    },
    {
      "anonymous": false,
      "inputs": [
        {
          "indexed": true,
          "internalType": "address",
          "name": "implementation",
          "type": "address"
        }
      ],
      "name": "Upgraded",
      "type": "event"
    },
    {
      "stateMutability": "payable",
      "type": "fallback"
    },
    {
      "inputs": [],
      "name": "admin",
      "outputs": [
        {
          "internalType": "address",
          "name": "admin_",
          "type": "address"
        }
      ],
      "stateMutability": "nonpayable",
      "type": "function"
    },
    {
      "inputs": [
        {
          "internalType": "address",
          "name": "newAdmin",
          "type": "address"
        }
      ],
      "name": "changeAdmin",
      "outputs": [],
      "stateMutability": "nonpayable",
      "type": "function"
    },
    {
      "inputs": [],
      "name": "implementation",
      "outputs": [
        {
          "internalType": "address",
          "name": "implementation_",
          "type": "address"
        }
      ],
      "stateMutability": "nonpayable",
      "type": "function"
    },
    {
      "inputs": [],
      "name": "logic",
      "outputs": [
        {
          "internalType": "address",
          "name": "",
          "type": "address"
        }
      ],
      "stateMutability": "view",
      "type": "function"
    },
    {
      "inputs": [
        {
          "internalType": "address",
          "name": "newImplementation",
          "type": "address"
        }
      ],
      "name": "upgradeTo",
      "outputs": [],
      "stateMutability": "nonpayable",
      "type": "function"
    },
    {
      "inputs": [
        {
          "internalType": "address",
          "name": "newImplementation",
          "type": "address"
        },
        {
          "internalType": "bytes",
          "name": "data",
          "type": "bytes"
        }
      ],
      "name": "upgradeToAndCall",
      "outputs": [],
      "stateMutability": "payable",
      "type": "function"
    },
    {
      "stateMutability": "payable",
      "type": "receive"
    }
  ],
  "bytecode": "0x60806040523480156200001157600080fd5b5060405162000f9a38038062000f9a833981016040819052620000349162000500565b82828282816200006660017f360894a13ba1a3210667c828492db98dca3e2076cc3735a920a3ca505d382bbd6200062f565b60008051602062000f53833981519152146200009257634e487b7160e01b600052600160045260246000fd5b620000a08282600062000113565b50620000d0905060017fb53127684a568b3173ae13b9f8a6016e243e63b6e8ee1178d6a717850b5d61046200062f565b60008051602062000f3383398151915214620000fc57634e487b7160e01b600052600160045260246000fd5b620001078262000150565b50505050505062000698565b6200011e83620001ab565b6000825111806200012c5750805b156200014b57620001498383620001ed60201b6200028a1760201c565b505b505050565b7f7e644d79422f17c01e4894b5f4f588d331ebfa28653d42ae832dc59e38c9798f6200017b6200021c565b604080516001600160a01b03928316815291841660208301520160405180910390a1620001a88162000255565b50565b620001b6816200030a565b6040516001600160a01b038216907fbc7cd75a20ee27fd9adebab32041f755214dbc6bffa90cc0225b39da2e5c2d3b90600090a250565b606062000215838360405180606001604052806027815260200162000f7360279139620003ad565b9392505050565b60006200024660008051602062000f3383398151915260001b6200049360201b620002281760201c565b546001600160a01b0316919050565b6001600160a01b038116620002c05760405162461bcd60e51b815260206004820152602660248201527f455243313936373a206e65772061646d696e20697320746865207a65726f206160448201526564647265737360d01b60648201526084015b60405180910390fd5b80620002e960008051602062000f3383398151915260001b6200049360201b620002281760201c565b80546001600160a01b0319166001600160a01b039290921691909117905550565b62000320816200049660201b620002b61760201c565b620003845760405162461bcd60e51b815260206004820152602d60248201527f455243313936373a206e657720696d706c656d656e746174696f6e206973206e60448201526c1bdd08184818dbdb9d1c9858dd609a1b6064820152608401620002b7565b80620002e960008051602062000f5383398151915260001b6200049360201b620002281760201c565b60606001600160a01b0384163b620004175760405162461bcd60e51b815260206004820152602660248201527f416464726573733a2064656c65676174652063616c6c20746f206e6f6e2d636f6044820152651b9d1c9858dd60d21b6064820152608401620002b7565b600080856001600160a01b031685604051620004349190620005dc565b600060405180830381855af49150503d806000811462000471576040519150601f19603f3d011682016040523d82523d6000602084013e62000476565b606091505b50909250905062000489828286620004a5565b9695505050505050565b90565b6001600160a01b03163b151590565b60608315620004b657508162000215565b825115620004c75782518084602001fd5b8160405162461bcd60e51b8152600401620002b79190620005fa565b80516001600160a01b0381168114620004fb57600080fd5b919050565b60008060006060848603121562000515578283fd5b6200052084620004e3565b92506200053060208501620004e3565b60408501519092506001600160401b03808211156200054d578283fd5b818601915086601f83011262000561578283fd5b81518181111562000576576200057662000682565b604051601f8201601f19908116603f01168101908382118183101715620005a157620005a162000682565b81604052828152896020848701011115620005ba578586fd5b620005cd83602083016020880162000653565b80955050505050509250925092565b60008251620005f081846020870162000653565b9190910192915050565b60208152600082518060208401526200061b81604085016020870162000653565b601f01601f19169190910160400192915050565b6000828210156200064e57634e487b7160e01b81526011600452602481fd5b500390565b60005b838110156200067057818101518382015260200162000656565b83811115620001495750506000910152565b634e487b7160e01b600052604160045260246000fd5b61088b80620006a86000396000f3fe6080604052600436106100595760003560e01c80633659cfe6146100705780634f1ef286146100905780635c60da1b146100a35780638f283970146100d4578063d7dfa0dd146100f4578063f851a4401461010957610068565b366100685761006661011e565b005b61006661011e565b34801561007c57600080fd5b5061006661008b36600461071b565b610138565b61006661009e366004610735565b61017f565b3480156100af57600080fd5b506100b86101f0565b6040516001600160a01b03909116815260200160405180910390f35b3480156100e057600080fd5b506100666100ef36600461071b565b61022b565b34801561010057600080fd5b506100b8610255565b34801561011557600080fd5b506100b861025f565b6101266102c5565b610136610131610364565b61036e565b565b610140610392565b6001600160a01b0316336001600160a01b0316141561017757610174816040518060200160405280600081525060006103c5565b50565b61017461011e565b610187610392565b6001600160a01b0316336001600160a01b031614156101e8576101e38383838080601f016020809104026020016040519081016040528093929190818152602001838380828437600092019190915250600192506103c5915050565b505050565b6101e361011e565b60006101fa610392565b6001600160a01b0316336001600160a01b031614156102205761021b610364565b905090565b61022861011e565b90565b610233610392565b6001600160a01b0316336001600160a01b0316141561017757610174816103f0565b600061021b610364565b6000610269610392565b6001600160a01b0316336001600160a01b031614156102205761021b610392565b60606102af838360405180606001604052806027815260200161082f60279139610444565b9392505050565b6001600160a01b03163b151590565b6102cd610392565b6001600160a01b0316336001600160a01b031614156101365760405162461bcd60e51b815260206004820152604260248201527f5472616e73706172656e745570677261646561626c6550726f78793a2061646d60448201527f696e2063616e6e6f742066616c6c6261636b20746f2070726f78792074617267606482015261195d60f21b608482015260a4015b60405180910390fd5b600061021b610521565b3660008037600080366000845af43d6000803e80801561038d573d6000f35b3d6000fd5b60007fb53127684a568b3173ae13b9f8a6016e243e63b6e8ee1178d6a717850b5d61035b546001600160a01b0316919050565b6103ce83610549565b6000825111806103db5750805b156101e3576103ea838361028a565b50505050565b7f7e644d79422f17c01e4894b5f4f588d331ebfa28653d42ae832dc59e38c9798f610419610392565b604080516001600160a01b03928316815291841660208301520160405180910390a161017481610589565b60606001600160a01b0384163b6104ac5760405162461bcd60e51b815260206004820152602660248201527f416464726573733a2064656c65676174652063616c6c20746f206e6f6e2d636f6044820152651b9d1c9858dd60d21b606482015260840161035b565b600080856001600160a01b0316856040516104c791906107b3565b600060405180830381855af49150503d8060008114610502576040519150601f19603f3d011682016040523d82523d6000602084013e610507565b606091505b5091509150610517828286610632565b9695505050505050565b60007f360894a13ba1a3210667c828492db98dca3e2076cc3735a920a3ca505d382bbc6103b6565b6105528161066b565b6040516001600160a01b038216907fbc7cd75a20ee27fd9adebab32041f755214dbc6bffa90cc0225b39da2e5c2d3b90600090a250565b6001600160a01b0381166105ee5760405162461bcd60e51b815260206004820152602660248201527f455243313936373a206e65772061646d696e20697320746865207a65726f206160448201526564647265737360d01b606482015260840161035b565b807fb53127684a568b3173ae13b9f8a6016e243e63b6e8ee1178d6a717850b5d61035b80546001600160a01b0319166001600160a01b039290921691909117905550565b606083156106415750816102af565b8251156106515782518084602001fd5b8160405162461bcd60e51b815260040161035b91906107cf565b6001600160a01b0381163b6106d85760405162461bcd60e51b815260206004820152602d60248201527f455243313936373a206e657720696d706c656d656e746174696f6e206973206e60448201526c1bdd08184818dbdb9d1c9858dd609a1b606482015260840161035b565b807f360894a13ba1a3210667c828492db98dca3e2076cc3735a920a3ca505d382bbc610611565b80356001600160a01b038116811461071657600080fd5b919050565b60006020828403121561072c578081fd5b6102af826106ff565b600080600060408486031215610749578182fd5b610752846106ff565b9250602084013567ffffffffffffffff8082111561076e578384fd5b818601915086601f830112610781578384fd5b81358181111561078f578485fd5b8760208285010111156107a0578485fd5b6020830194508093505050509250925092565b600082516107c5818460208701610802565b9190910192915050565b60208152600082518060208401526107ee816040850160208701610802565b601f01601f19169190910160400192915050565b60005b8381101561081d578181015183820152602001610805565b838111156103ea575050600091015256fe416464726573733a206c6f772d6c6576656c2064656c65676174652063616c6c206661696c6564a264697066735822122031933d89d207f3927e83098c6f104581a8ad92a7dd78513fa240e0a41202595964736f6c63430008040033b53127684a568b3173ae13b9f8a6016e243e63b6e8ee1178d6a717850b5d6103360894a13ba1a3210667c828492db98dca3e2076cc3735a920a3ca505d382bbc416464726573733a206c6f772d6c6576656c2064656c65676174652063616c6c206661696c6564",
  "linkReferences": {},
  "deployedLinkReferences": {}
}